:100000000C942A000C9434000C9444000C9434009A
:100010000C9434000C9434000C9434000C94340090
:100020000C9434000C9434000C9434000C94340080
:100030000C9434000C9434000C9434000C94340070
:100040000C9434000C9434000C9434000C94340060
:100050000C94340011241FBECFE5D8E0DEBFCDBF25
:100060000E9469000C947E000C94000082E08BB921
:1000700088E18AB986E880BD10BC8CE089B9089512
:100080005D9BFECF8CB908951F920F920FB60F9211
:1000900011242F933F934F935F936F937F938F938D
:1000A0009F93AF93BF93EF93FF9381E30E94400030
:1000B000FF91EF91BF91AF919F918F917F916F9140
:1000C0005F914F913F912F910F900FBE0F901F9016
:1000D00018950E9436002FE38DE093E02150804078
:1000E0009040E1F700C0000080E88BBF85B78860D2
:1000F00085BF85B7846085BF7894FFCFF894FFCF24
:00000001FF
