:100000000C942A000C943F000C943F000C943F0089
:100010000C943F000C943F000C943F000C943F0064
:100020000C943F000C943F000C943F000C943F0054
:100030000C943F000C943F000C943F000C943F0044
:100040000C943F000C943F000C943F000C943F0034
:100050000C943F0011241FBECFE5D8E0DEBFCDBF1A
:1000600010E0A0E6B0E0E8E0F1E002C005900D92FB
:10007000A037B107D9F70E9457000C9482000C9466
:100080000000AC0120E030E00EC0FA01E20FF31FE7
:10009000908190FF04C096959058908302C09695E9
:1000A00090832F5F3F4F261737077CF308958FEF1C
:1000B0008ABB87BB11BA68E070E080E690E00E94DE
:1000C000410040E050E01AC0FC01E859FF4F208198
:1000D0002BBBFC01E05AFF4F2081209528BBE3EFAA
:1000E000F1E03197F1F700C00000019602C080E016
:1000F00090E08830910544F34F5F5F4F44365105DF
:08010000B4F3D9CFF894FFCF4E
:10010800001C220202221C00010204081020408068
:00000001FF
