:100000000C9463000C948B000C948B000C948D0367
:100010000C948D030C948D030C948B000C948B002A
:100020000C948B000C948B000C948B000C948B0024
:100030000C948B000C948B000C948B000C948B0014
:100040000C94EB020C948B000C945B030C94350322
:100050000C948B000C948B000C948B000C948B00F4
:100060000C948B000C948B000000000024002700EF
:100070002A0000000008000201000003040700003D
:1000800000000000000000000000230026002900FE
:1000900000000000250028002B00040404040404D0
:1000A0000404020202020202030303030303010227
:1000B00004081020408001020408102001020408F6
:1000C00010200504200611241FBECFEFD8E0DEBFAC
:1000D000CDBF11E0A0E0B1E0EEE9FCE002C0059088
:1000E0000D92A432B107D9F722E0A4E2B1E001C039
:1000F0001D92AE32B207E1F710E0C2E6D0E004C0D4
:100100002197FE010E943C06C136D107C9F70E9423
:10011000B0040C9442060C94000090E0FC01EE58F0
:10012000FF4F2491FC01E255FF4F3491FC01E6564C
:10013000FF4FE491EE23C9F0222339F0233001F17F
:10014000A8F4213019F1223029F1F0E0EE0FFF1F61
:10015000E057FF4FA591B4918FB7F894EC916111DE
:1001600026C030953E233C938FBF08952730A9F0D9
:100170002830C9F0243049F7809180008F7D03C07A
:10018000809180008F7780938000DFCF84B58F7758
:1001900084BDDBCF84B58F7DFBCF8091B0008F779E
:1001A0008093B000D2CF8091B0008F7DF9CF3E2BED
:1001B000DACFCF93DF9390E0FC01E255FF4F24911B
:1001C00086569F4FFC0184918823D1F090E0880FE0
:1001D000991FFC01E859FF4FA591B491FC01E0572C
:1001E000FF4FC591D49161110EC09FB7F8948C91C7
:1001F000E22FE0958E238C932881E223E8839FBF32
:10020000DF91CF9108958FB7F894EC91E22BEC93A6
:100210008FBFF6CF3FB7F89480916E0190916F0138
:10022000A0917001B091710126B5A89B05C02F3F28
:1002300019F00196A11DB11D3FBFBA2FA92F982F0C
:100240008827BC01CD01620F711D811D911D42E007
:10025000660F771F881F991F4A95D1F70895AF92AF
:10026000BF92CF92DF92EF92FF920F931F93CF93A3
:10027000DF936C017B018B01040F151FEB015E0105
:10028000AE18BF08C017D10759F06991D601ED919A
:10029000FC910190F081E02DC6010995892B79F739
:1002A000C501DF91CF911F910F91FF90EF90DF90EB
:1002B000CF90BF90AF900895FC01538D448D252FB2
:1002C00030E0842F90E0821B930B541710F0CF96F0
:1002D000089501970895FC01918D828D981761F022
:1002E000A28DAE0FBF2FB11D5D968C91928D9F5F39
:1002F0009F73928F90E008958FEF9FEF0895FC0118
:10030000918D828D981731F0828DE80FF11D858DCA
:1003100090E008958FEF9FEF0895FC01918D228D5D
:10032000892F90E0805C9F4F821B91098F739927E2
:10033000089582E791E00E948D0121E0892B09F464
:1003400020E0822F089580E090E0892B29F00E9420
:10035000990181110C9400000895FC01A48DA80F4F
:10036000B92FB11DA35ABF4F2C91848D90E00196F7
:100370008F739927848FA689B7892C93A089B18917
:100380008C91837080648C93938D848D981306C0B8
:100390000288F389E02D80818F7D80830895EF921C
:1003A000FF920F931F93CF93DF93EC0181E0888F2F
:1003B0009B8D8C8D98131AC0E889F989808185FFFF
:1003C00015C09FB7F894EE89FF896083E889F989A1
:1003D00080818370806480839FBF81E090E0DF91A3
:1003E000CF911F910F91FF90EF900895F62E0B8DF6
:1003F00010E00F5F1F4F0F731127E02E8C8D8E11B1
:100400000CC00FB607FCFACFE889F989808185FF17
:10041000F5CFCE010E94AD01F1CFEB8DEC0FFD2F9A
:10042000F11DE35AFF4FF0829FB7F8940B8FEA89D2
:10043000FB8980818062CFCFCF93DF93EC01888DE1
:100440008823B9F0AA89BB89E889F9898C9185FD4F
:1004500003C0808186FD0DC00FB607FCF7CF8C91DD
:1004600085FFF2CF808185FFEDCFCE010E94AD01E7
:10047000E9CFDF91CF910895209166013091670116
:100480002817390771F490916401809165019817DC
:1004900041F0E0916401F0E0EC5DFE4F808190E07E
:1004A00008958FEF9FEF08950895EF92FF920F93B5
:1004B0001F93CF93DF93DC015C96ED90FC905D97EA
:1004C000E114F10479F481E090E013969C938E930B
:1004D000129790E080E0DF91CF911F910F91FF90F4
:1004E000EF9008955196ED91FC91529750968C9112
:1004F0005097982F90950FB75E962C915E97122F7C
:10050000127021FD6095F8942081112319F1282B98
:100510002083E7012197F1F728E0462F50E0308152
:1005200060FF1AC0382B3083E7012197F1F7BA0139
:1005300075956795215089F7112381F08081892372
:1005400080830FBF5C968D919C910197F1F781E0BC
:1005500090E0C1CF2923DCCF3923E5CF9081892BCF
:10056000EFCF20916601309167012817390761F4B8
:10057000809165012091640190E0805C9F4F821B17
:1005800091098F739927089590E080E00895209154
:1005900066013091670128173907B9F49091640119
:1005A00080916501981789F0E0916401F0E0EC5DBD
:1005B000FE4F80812091640130E02F5F3F4F2F7309
:1005C00033272093640190E008958FEF9FEF089503
:1005D00090E080E008951F920F920FB60F921124C1
:1005E0002F933F938F939F93AF93BF9380916A0113
:1005F00090916B01A0916C01B0916D0130916901F6
:1006000023E0230F2D3758F50196A11DB11D20932E
:10061000690180936A0190936B01A0936C01B09380
:100620006D0180916E0190916F01A0917001B09168
:1006300071010196A11DB11D80936E0190936F0110
:10064000A0937001B0937101BF91AF919F918F9171
:100650003F912F910F900FBE0F901F90189526E895
:10066000230F0296A11DB11DD2CF1F920F920FB67C
:100670000F9211242F933F934F935F936F937F9328
:100680008F939F93AF93BF93EF93FF9382E791E094
:100690000E94AD01FF91EF91BF91AF919F918F911A
:1006A0007F916F915F914F913F912F910F900FBE6E
:1006B0000F901F9018951F920F920FB60F92112452
:1006C0002F938F939F93EF93FF93E0918201F0918B
:1006D00083018081E0918801F091890182FD1BC036
:1006E000908180918B018F5F8F7320918C01821795
:1006F00041F0E0918B01F0E0EE58FE4F958F809332
:100700008B01FF91EF919F918F912F910F900FBED1
:100710000F901F9018958081F4CF1F920F920FB603
:100720000F9211242F933F934F935F936F937F9377
:100730008F939F93AF93BF93EF93FF93E0916601E5
:10074000F0916701309749F0A685B7858585968D2C
:1007500091FF14C09C918923A1F4FF91EF91BF9167
:10076000AF919F918F917F916F915F914F913F9149
:100770002F910F900FBE0F901F9018959C91892379
:1007800061F7A389B4899C918589809589238C938D
:10079000868997890197F1F7608D718DA685B78558
:1007A000558538E020E0CB010197F1F7822F90E0EA
:1007B00095958795282F4C91452309F02068315055
:1007C00091F7868D81FD20958091650190E00196DD
:1007D0008F73992730916401381799F0A0916501C2
:1007E000B0E0AC5DBE4F2C9380936501828D938DFC
:1007F0000197F1F7A389B4898C919589892B8C9302
:10080000ACCF868D8160868FF1CF109275011092EA
:10081000740188EE93E0A0E0B0E0809376019093BD
:100820007701A0937801B093790124E031E030930F
:1008300073012093720125EC30E030937F01209307
:100840007E0124EC30E0309381012093800120EC84
:1008500030E0309383012093820121EC30E030932B
:1008600085012093840122EC30E0309387012093AE
:10087000860126EC30E030938901209388011092A4
:100880008B0110928C0110928D0110928E011092AA
:100890001202109211028093130290931402A093FB
:1008A0001502B093160286E191E0909310028093B6
:1008B0000F02109226021092250210922802109226
:1008C000270210922A021092290210922C021092F2
:1008D0002B0260912D026E7F6D7F60932D026695D5
:1008E000617081E0682783E00E948D0061E083E011
:1008F0000E94D900E1EBF0E0E491E0931F02EDE902
:10090000F0E0E491F0E0EE0FFF1FE057FF4F85911C
:100910009491909321028093200260E082E00E94F3
:10092000D90080912D0281FD04C061E082E00E9427
:100930008D0082E080931B02E0EBF0E0E491E09315
:100940001C02ECE9F0E0E491F0E0EE0FFF1FEA5743
:10095000FF4F8591949190931E0280931D020895FC
:10096000789484B5826084BD84B5816084BD85B58A
:10097000826085BD85B5816085BD80916E00816096
:1009800080936E001092810080918100826080933C
:10099000810080918100816080938100809180003E
:1009A0008160809380008091B10084608093B10069
:1009B0008091B00081608093B00080917A00846063
:1009C00080937A0080917A00826080937A0080918F
:1009D0007A00816080937A0080917A0080688093A9
:1009E0007A001092C100E0918201F091830182E0CF
:1009F0008083E0917E01F0917F011082E09180017F
:100A0000F09181018FEC808310928A01E091860140
:100A1000F091870186E08083E0918401F091850167
:100A2000808180618083E0918401F09185018081E3
:100A300088608083E0918401F091850180818068E5
:100A40008083E0918401F091850180818F7D808396
:100A500010922A0210922902109228021092270264
:100A600010922602109225028DE991E090932C02BB
:100A700080932B0290911B02963108F047C02DEB1A
:100A800030E030932602209325022BE931E03093A9
:100A90002802209327022CE231E030932A0220938F
:100AA00029022091680084E0983048F031E09E30BF
:100AB00008F430E081E001C0880F3A95EAF7822B14
:100AC000809368002DE630E0983050F02BE630E05F
:100AD0009E3030F02CE630E0963110F030E020E02F
:100AE0003093230220932202292F30E0983008F01F
:100AF00093C081E001C0880F9A95EAF780932402A1
:100B000080912B0290912C020197F1F7809129029C
:100B100090912A02892B49F1E0916601F0916701D9
:100B200022E0EF30F20709F1309739F0A389B48958
:100B30009C918589809589238C9380912D028E7F4D
:100B400080932D0210926501109264018FE092E073
:100B50009093670180936601E0912202F091230255
:100B6000808190912402892B808361E088E00E943B
:100B7000D90060E082E00E94D90061E083E00E9439
:100B8000D900C0E0D0E08FE092E00E94B102892B52
:100B9000A1F08FE092E00E94C702682F82E791E007
:100BA0000E94CF0180916801811143C061E088E01B
:100BB0000E948D0081E0809368010E940A014B0130
:100BC0005C0182E3C82ED12CE12CF12C0E940A0199
:100BD000681979098A099B09683E73408105910566
:100BE000A8F381E0C81AD108E108F10828EE820EC6
:100BF00023E0921EA11CB11CC114D104E104F10434
:100C000029F7209709F4BFCF0E949901882309F49E
:100C1000BACF0E940000B7CF9E3040F4285031096F
:100C200081E001C0880F2A95EAF768CF2E5031097C
:100C3000F7CF60E088E00E948D0010926801BDCF80
:100C400086E191E09093100280930F0280916601FB
:100C5000909167018F50924071F4E0912202F091DF
:100C600023029081809124028095892380831092B1
:100C70006701109266010895EE0FFF1F0590F49131
:100C8000E02D099410E0C2E6D0E004C0FE010E940D
:0E0C90003C062196C336D107C9F7F894FFCF72
:100C9E0000000000CF012F015C011C028D016B01D1
:100CAE007F010000000055022F01E8025402B1023C
:040CBE00C7023C022B
:00000001FF
