:100000000C942A000C9434000C9434000C943400AA
:100010000C9434000C9434000C9434000C94340090
:100020000C9434000C9434000C9434000C94340080
:100030000C9434000C9434000C9434000C94340070
:100040000C9434000C9434000C9434000C94340060
:100050000C94340011241FBECFE5D8E0DEBFCDBF25
:100060000E9436000C9456000C94000080E38ABB7A
:100070001BBA21E030E081E02115310509F080E074
:1000800090E01BBA2115310511F440E24BBB232B44
:1000900011F020E42BBB2FE33DE043E02150304042
:1000A0004040E1F700C000009C01E5CFF894FFCF8D
:00000001FF
